{
  "abi": [
    {
      "inputs": [
        {
          "internalType": "contract INonfungiblePositionManager",
          "name": "_nonfungiblePositionManager",
          "type": "address"
        },
        {
          "internalType": "contract ISwapRouter",
          "name": "_swapRouter",
          "type": "address"
        }
      ],
      "stateMutability": "nonpayable",
      "type": "constructor"
    },
    {
      "anonymous": false,
      "inputs": [
        {
          "indexed": false,
          "internalType": "address",
          "name": "owner",
          "type": "address"
        },
        {
          "indexed": false,
          "internalType": "uint256",
          "name": "tokenId",
          "type": "uint256"
        }
      ],
      "name": "createDeposit",
      "type": "event"
    },
    {
      "inputs": [
        {
          "internalType": "uint256",
          "name": "tokenId",
          "type": "uint256"
        }
      ],
      "name": "collectAllFees",
      "outputs": [
        {
          "internalType": "uint256",
          "name": "amount0",
          "type": "uint256"
        },
        {
          "internalType": "uint256",
          "name": "amount1",
          "type": "uint256"
        }
      ],
      "stateMutability": "nonpayable",
      "type": "function"
    },
    {
      "inputs": [
        {
          "internalType": "uint256",
          "name": "tokenId",
          "type": "uint256"
        }
      ],
      "name": "decreaseLiquidityFull",
      "outputs": [
        {
          "internalType": "uint256",
          "name": "amount0",
          "type": "uint256"
        },
        {
          "internalType": "uint256",
          "name": "amount1",
          "type": "uint256"
        }
      ],
      "stateMutability": "nonpayable",
      "type": "function"
    },
    {
      "inputs": [
        {
          "internalType": "uint256",
          "name": "tokenId",
          "type": "uint256"
        }
      ],
      "name": "decreaseLiquidityInHalf",
      "outputs": [
        {
          "internalType": "uint256",
          "name": "amount0",
          "type": "uint256"
        },
        {
          "internalType": "uint256",
          "name": "amount1",
          "type": "uint256"
        }
      ],
      "stateMutability": "nonpayable",
      "type": "function"
    },
    {
      "inputs": [
        {
          "internalType": "uint256",
          "name": "",
          "type": "uint256"
        }
      ],
      "name": "deposits",
      "outputs": [
        {
          "internalType": "address",
          "name": "owner",
          "type": "address"
        },
        {
          "internalType": "uint128",
          "name": "liquidity",
          "type": "uint128"
        },
        {
          "internalType": "address",
          "name": "token0",
          "type": "address"
        },
        {
          "internalType": "address",
          "name": "token1",
          "type": "address"
        }
      ],
      "stateMutability": "view",
      "type": "function"
    },
    {
      "inputs": [
        {
          "internalType": "address",
          "name": "token0",
          "type": "address"
        }
      ],
      "name": "getToken",
      "outputs": [],
      "stateMutability": "nonpayable",
      "type": "function"
    },
    {
      "inputs": [
        {
          "internalType": "uint256",
          "name": "tokenId",
          "type": "uint256"
        },
        {
          "internalType": "uint256",
          "name": "amountAdd0",
          "type": "uint256"
        },
        {
          "internalType": "uint256",
          "name": "amountAdd1",
          "type": "uint256"
        }
      ],
      "name": "increaseLiquidityCurrentRange",
      "outputs": [
        {
          "internalType": "uint128",
          "name": "liquidity",
          "type": "uint128"
        },
        {
          "internalType": "uint256",
          "name": "amount0",
          "type": "uint256"
        },
        {
          "internalType": "uint256",
          "name": "amount1",
          "type": "uint256"
        }
      ],
      "stateMutability": "nonpayable",
      "type": "function"
    },
    {
      "inputs": [
        {
          "internalType": "address",
          "name": "token0",
          "type": "address"
        },
        {
          "internalType": "address",
          "name": "token1",
          "type": "address"
        },
        {
          "internalType": "int24",
          "name": "tickSpacing",
          "type": "int24"
        },
        {
          "internalType": "int24",
          "name": "tickLower",
          "type": "int24"
        },
        {
          "internalType": "int24",
          "name": "tickUpper",
          "type": "int24"
        },
        {
          "internalType": "uint256",
          "name": "amount0ToMint",
          "type": "uint256"
        },
        {
          "internalType": "uint256",
          "name": "amount1ToMint",
          "type": "uint256"
        }
      ],
      "name": "mintNewPosition",
      "outputs": [
        {
          "internalType": "uint256",
          "name": "tokenId",
          "type": "uint256"
        },
        {
          "internalType": "uint128",
          "name": "liquidity",
          "type": "uint128"
        },
        {
          "internalType": "uint256",
          "name": "amount0",
          "type": "uint256"
        },
        {
          "internalType": "uint256",
          "name": "amount1",
          "type": "uint256"
        }
      ],
      "stateMutability": "nonpayable",
      "type": "function"
    },
    {
      "inputs": [],
      "name": "nonfungiblePositionManager",
      "outputs": [
        {
          "internalType": "contract INonfungiblePositionManager",
          "name": "",
          "type": "address"
        }
      ],
      "stateMutability": "view",
      "type": "function"
    },
    {
      "inputs": [
        {
          "internalType": "address",
          "name": "operator",
          "type": "address"
        },
        {
          "internalType": "address",
          "name": "",
          "type": "address"
        },
        {
          "internalType": "uint256",
          "name": "tokenId",
          "type": "uint256"
        },
        {
          "internalType": "bytes",
          "name": "",
          "type": "bytes"
        }
      ],
      "name": "onERC721Received",
      "outputs": [
        {
          "internalType": "bytes4",
          "name": "",
          "type": "bytes4"
        }
      ],
      "stateMutability": "nonpayable",
      "type": "function"
    },
    {
      "inputs": [],
      "name": "poolFee",
      "outputs": [
        {
          "internalType": "uint24",
          "name": "",
          "type": "uint24"
        }
      ],
      "stateMutability": "view",
      "type": "function"
    },
    {
      "inputs": [
        {
          "internalType": "uint256",
          "name": "tokenId",
          "type": "uint256"
        }
      ],
      "name": "retrieveNFT",
      "outputs": [],
      "stateMutability": "nonpayable",
      "type": "function"
    },
    {
      "inputs": [],
      "name": "swapRouter",
      "outputs": [
        {
          "internalType": "contract ISwapRouter",
          "name": "",
          "type": "address"
        }
      ],
      "stateMutability": "view",
      "type": "function"
    },
    {
      "inputs": [
        {
          "internalType": "address",
          "name": "tokenIn",
          "type": "address"
        },
        {
          "internalType": "address",
          "name": "tokenOut",
          "type": "address"
        },
        {
          "internalType": "uint256",
          "name": "amountIn",
          "type": "uint256"
        },
        {
          "internalType": "uint24",
          "name": "fee",
          "type": "uint24"
        }
      ],
      "name": "swapToken",
      "outputs": [
        {
          "internalType": "uint256",
          "name": "amountOut",
          "type": "uint256"
        }
      ],
      "stateMutability": "nonpayable",
      "type": "function"
    },
    {
      "inputs": [
        {
          "internalType": "int24",
          "name": "",
          "type": "int24"
        }
      ],
      "name": "tickSpacingFeeAmount",
      "outputs": [
        {
          "internalType": "uint24",
          "name": "",
          "type": "uint24"
        }
      ],
      "stateMutability": "view",
      "type": "function"
    },
    {
      "stateMutability": "payable",
      "type": "receive"
    }
  ],
  "bytecode": {
    "object": "0x60c06040523480156200001157600080fd5b5060405162001f2438038062001f248339810160408190526200003491620000f8565b6001600160601b0319606092831b8116608052911b1660a052600080546001600160a01b0319163317815560016020527f2a32391a76c35a36352b711f9152c0d0a340cd686850c8ef25fbb11c71b89e7b805462ffffff199081166101f4179091557f7af51807487ed801b97f9a13aded219acf180b0f4e84cab1d24d71f9dbe1d25c80548216610bb817905560c89091527f345f7c6c888721344af4147de0834159e0b302300ba13c4e7b6c0b60d8f2314e80549091166127101790556200014f565b600080604083850312156200010b578182fd5b8251620001188162000136565b60208401519092506200012b8162000136565b809150509250929050565b6001600160a01b03811681146200014c57600080fd5b50565b60805160601c60a05160601c611d65620001bf6000398061048e52806105335280610bf552508061037a52806105ff528061079052806107d6528061087d528061094852806109795280610a325280610adb5280610b1f5280610bd15280610c1e5280610efb5250611d656000f3fe6080604052600436106100e05760003560e01c8063597704381161007f5780638187b4c5116100595780638187b4c514610280578063b02c43d0146102a0578063b44a2722146102d0578063c31c9c07146102f2576100e7565b80635977043814610201578063617d6d6e146102215780637f55d20014610250576100e7565b8063150b7a02116100bb578063150b7a02146101595780632d1d6a24146101865780633b861b26146101b457806346ce96dd146101e1576100e7565b8062cd2c7e146100ec578063089fe6aa146101225780630a1d7c5f14610137576100e7565b366100e757005b600080fd5b3480156100f857600080fd5b5061010c61010736600461173d565b610307565b6040516101199190611c8a565b60405180910390f35b34801561012e57600080fd5b5061010c61031e565b34801561014357600080fd5b5061015761015236600461178d565b610324565b005b34801561016557600080fd5b50610179610174366004611651565b61042d565b60405161011991906119c7565b34801561019257600080fd5b506101a66101a136600461178d565b61044b565b604051610119929190611cc7565b3480156101c057600080fd5b506101d46101cf3660046116eb565b61047a565b6040516101199190611c9a565b3480156101ed57600080fd5b506101a66101fc36600461178d565b6105c6565b34801561020d57600080fd5b5061015761021c3660046115ac565b6106a3565b34801561022d57600080fd5b5061024161023c36600461181b565b61076b565b60405161011993929190611c69565b34801561025c57600080fd5b5061027061026b3660046115cf565b610914565b6040516101199493929190611ca3565b34801561028c57600080fd5b506101a661029b36600461178d565b610b64565b3480156102ac57600080fd5b506102c06102bb36600461178d565b610b90565b604051610119949392919061197a565b3480156102dc57600080fd5b506102e5610bcf565b6040516101199190611942565b3480156102fe57600080fd5b506102e5610bf3565b60016020526000908152604090205462ffffff1681565b610bb881565b6000818152600260205260409020546001600160a01b031633146103635760405162461bcd60e51b815260040161035a90611a2c565b60405180910390fd5b604051632142170760e11b81526001600160a01b037f000000000000000000000000000000000000000000000000000000000000000016906342842e0e906103b390309033908690600401611956565b600060405180830381600087803b1580156103cd57600080fd5b505af11580156103e1573d6000803e3d6000fd5b50505060009182525060026020819052604090912080546001600160a01b031990811682556001820180546001600160801b031916905591810180548316905560030180549091169055565b60006104398685610c17565b50630a85bd0160e11b95945050505050565b60008181526002602052604081206001015481906104739084906001600160801b0316610e17565b5050915091565b600061048885333086610fca565b6104b3857f000000000000000000000000000000000000000000000000000000000000000085611122565b6104d5604051806060016040528060258152602001611d0b6025913984611270565b60408051610100810182526001600160a01b038088168252868116602083015262ffffff85168284015233606083015242608083015260a08201869052600060c0830181905260e08301819052925163414bf38960e01b81528392917f0000000000000000000000000000000000000000000000000000000000000000169063414bf38990610568908490600401611b0e565b602060405180830381600087803b15801561058257600080fd5b505af1158015610596573d6000803e3d6000fd5b505050506040513d601f19601f820116820180604052508101906105ba91906117a5565b98975050505050505050565b604080516080810182528281523060208201526001600160801b038183018190526060820152905163fc6f786560e01b815260009182917f00000000000000000000000000000000000000000000000000000000000000006001600160a01b03169063fc6f78659061063c908490600401611a88565b6040805180830381600087803b15801561065557600080fd5b505af1158015610669573d6000803e3d6000fd5b505050506040513d601f19601f8201168201806040525081019061068d91906117f8565b909350915061069d84848461131e565b50915091565b6000546001600160a01b031633146106cd5760405162461bcd60e51b815260040161035a906119dc565b6040516370a0823160e01b81526000906001600160a01b038316906370a08231906106fc903090600401611942565b60206040518083038186803b15801561071457600080fd5b505afa158015610728573d6000803e3d6000fd5b505050506040513d601f19601f8201168201806040525081019061074c91906117a5565b6000549091506107679083906001600160a01b03168361135e565b5050565b600083815260026020819052604082200154819081906107b5906001600160a01b03167f000000000000000000000000000000000000000000000000000000000000000087611122565b6000868152600260205260409020600301546107fb906001600160a01b03167f000000000000000000000000000000000000000000000000000000000000000086611122565b6108396040518060400160405280601d81526020017f696e6372656173654c697175696469747943757272656e7452616e67650000008152506114a5565b6040805160c0810182528781526020810187905280820186905260006060820181905260808201524260a0820152905163219f5d1760e01b81526001600160a01b037f0000000000000000000000000000000000000000000000000000000000000000169063219f5d17906108b2908490600401611b77565b606060405180830381600087803b1580156108cc57600080fd5b505af11580156108e0573d6000803e3d6000fd5b505050506040513d601f19601f820116820180604052508101906109049190611759565b9199909850909650945050505050565b600080600080896001600160a01b03168b6001600160a01b03161061093a57898b61093d565b8a8a5b909b5099506109738b7f000000000000000000000000000000000000000000000000000000000000000060026000195b04611122565b6109a28a7f0000000000000000000000000000000000000000000000000000000000000000600260001961096d565b60408051610160810182526001600160a01b03808e1682528c811660208084019190915260028d810b810b600090815260019092528482205462ffffff16848601528c810b60608501528b900b608084015260a083018a905260c0830189905260e08301819052610100830152306101208301526201518042016101408301529151634418b22b60e11b815290917f00000000000000000000000000000000000000000000000000000000000000001690638831645690610a67908490600401611bbb565b608060405180830381600087803b158015610a8157600080fd5b505af1158015610a95573d6000803e3d6000fd5b505050506040513d601f19601f82011682018060405250810190610ab991906117bd565b92975090955093509150610acd3386610c17565b86831015610b1157610b018c7f00000000000000000000000000000000000000000000000000000000000000006000611122565b828703610b0f8d338361135e565b505b85821015610b5557610b458b7f00000000000000000000000000000000000000000000000000000000000000006000611122565b818603610b538c338361135e565b505b50975097509750979350505050565b60008181526002602081905260408220600101548291610473918591906001600160801b031604610e17565b600260208190526000918252604090912080546001820154928201546003909201546001600160a01b03918216936001600160801b0316928216911684565b7f000000000000000000000000000000000000000000000000000000000000000081565b7f000000000000000000000000000000000000000000000000000000000000000081565b60008060007f00000000000000000000000000000000000000000000000000000000000000006001600160a01b03166399fbab88856040518263ffffffff1660e01b8152600401610c689190611c9a565b6101806040518083038186803b158015610c8157600080fd5b505afa158015610c95573d6000803e3d6000fd5b505050506040513d601f19601f82011682018060405250810190610cb99190611846565b5050505097505050509450945050506040518060800160405280866001600160a01b03168152602001826001600160801b03168152602001846001600160a01b03168152602001836001600160a01b03168152506002600086815260200190815260200160002060008201518160000160006101000a8154816001600160a01b0302191690836001600160a01b0316021790555060208201518160010160006101000a8154816001600160801b0302191690836001600160801b0316021790555060408201518160020160006101000a8154816001600160a01b0302191690836001600160a01b0316021790555060608201518160030160006101000a8154816001600160a01b0302191690836001600160a01b031602179055509050507f442e501d827074336675c14a01c2c81c01219206aead308f594a84b95d1cefb78585604051610e089291906119ae565b60405180910390a15050505050565b60008281526002602052604081205481906001600160a01b03163314610e4f5760405162461bcd60e51b815260040161035a90611a2c565b6000836001600160801b031611610e785760405162461bcd60e51b815260040161035a90611a53565b6000848152600260205260409020600101546001600160801b039081169084161115610eb65760405162461bcd60e51b815260040161035a90611a00565b6040805160a0810182528581526001600160801b0385166020820152600081830181905260608201524260808201529051630624e65f60e11b81526001600160a01b037f00000000000000000000000000000000000000000000000000000000000000001690630c49ccbe90610f30908490600401611acb565b6040805180830381600087803b158015610f4957600080fd5b505af1158015610f5d573d6000803e3d6000fd5b505050506040513d601f19601f82011682018060405250810190610f8191906117f8565b600087815260026020526040902060010180546001600160801b03808216899003166001600160801b03199091161790559093509150610fc285848461131e565b509250929050565b604080516001600160a01b0385811660248301528481166044830152606480830185905283518084039091018152608490920183526020820180516001600160e01b03166323b872dd60e01b178152925182516000948594938a169392918291908083835b6020831061104e5780518252601f19909201916020918201910161102f565b6001836020036101000a0380198251168184511680821785525050505050509050019150506000604051808303816000865af19150503d80600081146110b0576040519150601f19603f3d011682016040523d82523d6000602084013e6110b5565b606091505b50915091508180156110e35750805115806110e357508080602001905160208110156110e057600080fd5b50515b61111a576040805162461bcd60e51b815260206004820152600360248201526229aa2360e91b604482015290519081900360640190fd5b505050505050565b604080516001600160a01b038481166024830152604480830185905283518084039091018152606490920183526020820180516001600160e01b031663095ea7b360e01b1781529251825160009485949389169392918291908083835b6020831061119e5780518252601f19909201916020918201910161117f565b6001836020036101000a0380198251168184511680821785525050505050509050019150506000604051808303816000865af19150503d8060008114611200576040519150601f19603f3d011682016040523d82523d6000602084013e611205565b606091505b5091509150818015611233575080511580611233575080806020019051602081101561123057600080fd5b50515b611269576040805162461bcd60e51b8152602060048201526002602482015261534160f01b604482015290519081900360640190fd5b5050505050565b61076782826040516024018080602001838152602001828103825284818151815260200191508051906020019080838360005b838110156112bb5781810151838201526020016112a3565b50505050905090810190601f1680156112e85780820380516001836020036101000a031916815260200191505b5060408051601f198184030181529190526020810180516001600160e01b03166309710a9d60e41b179052935061154e92505050565b60008381526002602081905260409091208054918101546003909101546001600160a01b0392831692918216911661135782848761135e565b61111a8184865b604080516001600160a01b038481166024830152604480830185905283518084039091018152606490920183526020820180516001600160e01b031663a9059cbb60e01b1781529251825160009485949389169392918291908083835b602083106113da5780518252601f1990920191602091820191016113bb565b6001836020036101000a0380198251168184511680821785525050505050509050019150506000604051808303816000865af19150503d806000811461143c576040519150601f19603f3d011682016040523d82523d6000602084013e611441565b606091505b509150915081801561146f57508051158061146f575080806020019051602081101561146c57600080fd5b50515b611269576040805162461bcd60e51b815260206004820152600260248201526114d560f21b604482015290519081900360640190fd5b61154b816040516024018080602001828103825283818151815260200191508051906020019080838360005b838110156114e95781810151838201526020016114d1565b50505050905090810190601f1680156115165780820380516001836020036101000a031916815260200191505b5060408051601f198184030181529190526020810180516001600160e01b031663104c13eb60e21b179052925061154e915050565b50565b80516a636f6e736f6c652e6c6f67602083016000808483855afa5050505050565b805161157a81611cd5565b919050565b805161157a81611cea565b80516001600160801b038116811461157a57600080fd5b805161157a81611cf9565b6000602082840312156115bd578081fd5b81356115c881611cd5565b9392505050565b600080600080600080600060e0888a0312156115e9578283fd5b87356115f481611cd5565b9650602088013561160481611cd5565b9550604088013561161481611cea565b9450606088013561162481611cea565b9350608088013561163481611cea565b9699959850939692959460a0840135945060c09093013592915050565b600080600080600060808688031215611668578081fd5b853561167381611cd5565b9450602086013561168381611cd5565b935060408601359250606086013567ffffffffffffffff808211156116a6578283fd5b818801915088601f8301126116b9578283fd5b8135818111156116c7578384fd5b8960208285010111156116d8578384fd5b9699959850939650602001949392505050565b60008060008060808587031215611700578384fd5b843561170b81611cd5565b9350602085013561171b81611cd5565b925060408501359150606085013561173281611cf9565b939692955090935050565b60006020828403121561174e578081fd5b81356115c881611cea565b60008060006060848603121561176d578283fd5b6117768461158a565b925060208401519150604084015190509250925092565b60006020828403121561179e578081fd5b5035919050565b6000602082840312156117b6578081fd5b5051919050565b600080600080608085870312156117d2578384fd5b845193506117e26020860161158a565b6040860151606090960151949790965092505050565b6000806040838503121561180a578182fd5b505080516020909101519092909150565b60008060006060848603121561182f578081fd5b505081359360208301359350604090920135919050565b6000806000806000806000806000806000806101808d8f031215611868578586fd5b8c516bffffffffffffffffffffffff81168114611883578687fd5b9b5061189160208e0161156f565b9a5061189f60408e0161156f565b99506118ad60608e0161156f565b98506118bb60808e016115a1565b97506118c960a08e0161157f565b96506118d760c08e0161157f565b95506118e560e08e0161158a565b94506101008d015193506101208d015192506119046101408e0161158a565b91506119136101608e0161158a565b90509295989b509295989b509295989b565b6001600160a01b03169052565b60020b9052565b62ffffff169052565b6001600160a01b0391909116815260200190565b6001600160a01b039384168152919092166020820152604081019190915260600190565b6001600160a01b0394851681526001600160801b039390931660208401529083166040830152909116606082015260800190565b6001600160a01b03929092168252602082015260400190565b6001600160e01b031991909116815260200190565b6020808252600a90820152694e6f74204f776e65722160b01b604082015260600190565b602080825260129082015271098d2e2ead2c8d2e8f240e8dede40d0d2ced60731b604082015260600190565b6020808252600d908201526c2737ba103a34329037bbb732b960991b604082015260600190565b6020808252818101527f4c6971756964697479206d7573742062652067726561746572207468616e2030604082015260600190565b815181526020808301516001600160a01b0316908201526040808301516001600160801b0390811691830191909152606092830151169181019190915260800190565b600060a082019050825182526001600160801b03602084015116602083015260408301516040830152606083015160608301526080830151608083015292915050565b81516001600160a01b03908116825260208084015182169083015260408084015162ffffff16908301526060808401518216908301526080808401519083015260a0838101519083015260c0808401519083015260e09283015116918101919091526101000190565b600060c082019050825182526020830151602083015260408301516040830152606083015160608301526080830151608083015260a083015160a083015292915050565b600061016082019050611bcf828451611925565b6020830151611be16020840182611925565b506040830151611bf46040840182611939565b506060830151611c076060840182611932565b506080830151611c1a6080840182611932565b5060a083015160a083015260c083015160c083015260e083015160e083015261010080840151818401525061012080840151611c5882850182611925565b505061014092830151919092015290565b6001600160801b039390931683526020830191909152604082015260600190565b62ffffff91909116815260200190565b90815260200190565b9384526001600160801b039290921660208401526040830152606082015260800190565b918252602082015260400190565b6001600160a01b038116811461154b57600080fd5b8060020b811461154b57600080fd5b62ffffff8116811461154b57600080fdfe417070726f76652074686520726f7574657220746f207370656e6420546f6b656e496e3a20a2646970667358221220280b7ed5fb33092a78a24d4154a4ef7cf0c86a560efe578f41d07923cec6707264736f6c63430007060033",
    "linkReferences": {}
  },
  "methodIdentifiers": {
    "collectAllFees(uint256)": "46ce96dd",
    "decreaseLiquidityFull(uint256)": "2d1d6a24",
    "decreaseLiquidityInHalf(uint256)": "8187b4c5",
    "deposits(uint256)": "b02c43d0",
    "getToken(address)": "59770438",
    "increaseLiquidityCurrentRange(uint256,uint256,uint256)": "617d6d6e",
    "mintNewPosition(address,address,int24,int24,int24,uint256,uint256)": "7f55d200",
    "nonfungiblePositionManager()": "b44a2722",
    "onERC721Received(address,address,uint256,bytes)": "150b7a02",
    "poolFee()": "089fe6aa",
    "retrieveNFT(uint256)": "0a1d7c5f",
    "swapRouter()": "c31c9c07",
    "swapToken(address,address,uint256,uint24)": "3b861b26",
    "tickSpacingFeeAmount(int24)": "00cd2c7e"
  },
  "id": 138
}